{
  "_format": "hh-sol-artifact-1",
  "contractName": "DigitalDocumentRegistry",
  "sourceName": "contracts/newContract.sol",
  "abi": [
    {
      "inputs": [],
      "stateMutability": "nonpayable",
      "type": "constructor"
    },
    {
      "anonymous": false,
      "inputs": [
        {
          "indexed": false,
          "internalType": "uint256",
          "name": "id",
          "type": "uint256"
        }
      ],
      "name": "DocumentRejected",
      "type": "event"
    },
    {
      "anonymous": false,
      "inputs": [
        {
          "indexed": false,
          "internalType": "uint256",
          "name": "id",
          "type": "uint256"
        },
        {
          "indexed": false,
          "internalType": "address",
          "name": "owner",
          "type": "address"
        },
        {
          "indexed": false,
          "internalType": "string",
          "name": "title",
          "type": "string"
        }
      ],
      "name": "DocumentUploaded",
      "type": "event"
    },
    {
      "anonymous": false,
      "inputs": [
        {
          "indexed": false,
          "internalType": "uint256",
          "name": "id",
          "type": "uint256"
        }
      ],
      "name": "DocumentVerified",
      "type": "event"
    },
    {
      "anonymous": false,
      "inputs": [
        {
          "indexed": false,
          "internalType": "uint256",
          "name": "id",
          "type": "uint256"
        },
        {
          "indexed": false,
          "internalType": "string",
          "name": "cid",
          "type": "string"
        }
      ],
      "name": "IPFSAttached",
      "type": "event"
    },
    {
      "inputs": [
        {
          "internalType": "uint256",
          "name": "_id",
          "type": "uint256"
        },
        {
          "internalType": "string",
          "name": "_cid",
          "type": "string"
        }
      ],
      "name": "attachIPFS",
      "outputs": [],
      "stateMutability": "nonpayable",
      "type": "function"
    },
    {
      "inputs": [],
      "name": "docCounter",
      "outputs": [
        {
          "internalType": "uint256",
          "name": "",
          "type": "uint256"
        }
      ],
      "stateMutability": "view",
      "type": "function"
    },
    {
      "inputs": [
        {
          "internalType": "uint256",
          "name": "",
          "type": "uint256"
        }
      ],
      "name": "documents",
      "outputs": [
        {
          "internalType": "uint256",
          "name": "id",
          "type": "uint256"
        },
        {
          "internalType": "address",
          "name": "owner",
          "type": "address"
        },
        {
          "internalType": "string",
          "name": "title",
          "type": "string"
        },
        {
          "internalType": "string",
          "name": "fileHash",
          "type": "string"
        },
        {
          "internalType": "string",
          "name": "date",
          "type": "string"
        },
        {
          "internalType": "enum DigitalDocumentRegistry.Status",
          "name": "status",
          "type": "uint8"
        }
      ],
      "stateMutability": "view",
      "type": "function"
    },
    {
      "inputs": [
        {
          "internalType": "address",
          "name": "user",
          "type": "address"
        }
      ],
      "name": "getDocumentsByUser",
      "outputs": [
        {
          "components": [
            {
              "internalType": "uint256",
              "name": "id",
              "type": "uint256"
            },
            {
              "internalType": "address",
              "name": "owner",
              "type": "address"
            },
            {
              "internalType": "string",
              "name": "title",
              "type": "string"
            },
            {
              "internalType": "string",
              "name": "fileHash",
              "type": "string"
            },
            {
              "internalType": "string",
              "name": "date",
              "type": "string"
            },
            {
              "internalType": "enum DigitalDocumentRegistry.Status",
              "name": "status",
              "type": "uint8"
            }
          ],
          "internalType": "struct DigitalDocumentRegistry.Document[]",
          "name": "",
          "type": "tuple[]"
        }
      ],
      "stateMutability": "view",
      "type": "function"
    },
    {
      "inputs": [],
      "name": "institution",
      "outputs": [
        {
          "internalType": "address",
          "name": "",
          "type": "address"
        }
      ],
      "stateMutability": "view",
      "type": "function"
    },
    {
      "inputs": [
        {
          "internalType": "uint256",
          "name": "_id",
          "type": "uint256"
        }
      ],
      "name": "rejectDocument",
      "outputs": [],
      "stateMutability": "nonpayable",
      "type": "function"
    },
    {
      "inputs": [
        {
          "internalType": "string",
          "name": "_title",
          "type": "string"
        },
        {
          "internalType": "string",
          "name": "_tempHash",
          "type": "string"
        },
        {
          "internalType": "string",
          "name": "_date",
          "type": "string"
        }
      ],
      "name": "uploadDocument",
      "outputs": [],
      "stateMutability": "nonpayable",
      "type": "function"
    },
    {
      "inputs": [
        {
          "internalType": "address",
          "name": "",
          "type": "address"
        },
        {
          "internalType": "uint256",
          "name": "",
          "type": "uint256"
        }
      ],
      "name": "userDocuments",
      "outputs": [
        {
          "internalType": "uint256",
          "name": "",
          "type": "uint256"
        }
      ],
      "stateMutability": "view",
      "type": "function"
    },
    {
      "inputs": [
        {
          "internalType": "uint256",
          "name": "_id",
          "type": "uint256"
        }
      ],
      "name": "verifyDocument",
      "outputs": [],
      "stateMutability": "nonpayable",
      "type": "function"
    }
  ],
  "bytecode": "0x6080604052348015600f57600080fd5b5033600360006101000a81548173ffffffffffffffffffffffffffffffffffffffff021916908373ffffffffffffffffffffffffffffffffffffffff160217905550611a09806100606000396000f3fe608060405234801561001057600080fd5b50600436106100935760003560e01c8063a1a1eba311610066578063a1a1eba31461011c578063c2ed2b0514610138578063d1384eb61461016d578063d7eaaccc1461018b578063da4d8b47146101bb57610093565b8063577a1b92146100985780636dda61d9146100c85780637b10becb146100e45780639e987f9514610100575b600080fd5b6100b260048036038101906100ad9190610e74565b6101d9565b6040516100bf9190610ec3565b60405180910390f35b6100e260048036038101906100dd9190610ede565b61020a565b005b6100fe60048036038101906100f99190610ede565b610312565b005b61011a60048036038101906101159190611051565b61041b565b005b610136600480360381019061013191906110f8565b61060e565b005b610152600480360381019061014d9190610ede565b610789565b60405161016496959493929190611259565b60405180910390f35b61017561098a565b60405161018291906112cf565b60405180910390f35b6101a560048036038101906101a091906112ea565b6109b0565b6040516101b291906114e7565b60405180910390f35b6101c3610d68565b6040516101d09190610ec3565b60405180910390f35b600260205281600052604060002081815481106101f557600080fd5b90600052602060002001600091509150505481565b600360009054906101000a900473ffffffffffffffffffffffffffffffffffffffff1673ffffffffffffffffffffffffffffffffffffffff163373ffffffffffffffffffffffffffffffffffffffff161461029a576040517f08c379a000000000000000000000000000000000000000000000000000000000815260040161029190611555565b60405180910390fd5b600180600083815260200190815260200160002060050160006101000a81548160ff021916908360028111156102d3576102d26111e2565b5b02179055507f4b93fd5160fbc8b35d08aff650902cf41c86e6df325a3eabab5bcca811976cf7816040516103079190610ec3565b60405180910390a150565b600360009054906101000a900473ffffffffffffffffffffffffffffffffffffffff1673ffffffffffffffffffffffffffffffffffffffff163373ffffffffffffffffffffffffffffffffffffffff16146103a2576040517f08c379a000000000000000000000000000000000000000000000000000000000815260040161039990611555565b60405180910390fd5b60026001600083815260200190815260200160002060050160006101000a81548160ff021916908360028111156103dc576103db6111e2565b5b02179055507f9b7d442dd67c77ac8ed186e072b963a6229576f85973bfbac316aa1ccf4ea595816040516104109190610ec3565b60405180910390a150565b60008081548092919061042d906115a4565b91905055506040518060c0016040528060005481526020013373ffffffffffffffffffffffffffffffffffffffff16815260200184815260200183815260200182815260200160006002811115610487576104866111e2565b5b81525060016000805481526020019081526020016000206000820151816000015560208201518160010160006101000a81548173ffffffffffffffffffffffffffffffffffffffff021916908373ffffffffffffffffffffffffffffffffffffffff160217905550604082015181600201908161050491906117f8565b50606082015181600301908161051a91906117f8565b50608082015181600401908161053091906117f8565b5060a08201518160050160006101000a81548160ff0219169083600281111561055c5761055b6111e2565b5b0217905550905050600260003373ffffffffffffffffffffffffffffffffffffffff1673ffffffffffffffffffffffffffffffffffffffff16815260200190815260200160002060005490806001815401808255809150506001900390600052602060002001600090919091909150557fffaa94bbdb06ce69a1cd16a5a05500d4475f2b769b7da620be594121265017f96000543385604051610601939291906118ca565b60405180910390a1505050565b600360009054906101000a900473ffffffffffffffffffffffffffffffffffffffff1673ffffffffffffffffffffffffffffffffffffffff163373ffffffffffffffffffffffffffffffffffffffff161461069e576040517f08c379a000000000000000000000000000000000000000000000000000000000815260040161069590611555565b60405180910390fd5b600160028111156106b2576106b16111e2565b5b6001600084815260200190815260200160002060050160009054906101000a900460ff1660028111156106e8576106e76111e2565b5b14610728576040517f08c379a000000000000000000000000000000000000000000000000000000000815260040161071f90611954565b60405180910390fd5b8060016000848152602001908152602001600020600301908161074b91906117f8565b507f2ef5b0ad54fc3d3bf73d73cb6bd98892c3c0e9e5b51f77fae025e26d70dc69ec828260405161077d929190611974565b60405180910390a15050565b60016020528060005260406000206000915090508060000154908060010160009054906101000a900473ffffffffffffffffffffffffffffffffffffffff16908060020180546107d89061161b565b80601f01602080910402602001604051908101604052809291908181526020018280546108049061161b565b80156108515780601f1061082657610100808354040283529160200191610851565b820191906000526020600020905b81548152906001019060200180831161083457829003601f168201915b5050505050908060030180546108669061161b565b80601f01602080910402602001604051908101604052809291908181526020018280546108929061161b565b80156108df5780601f106108b4576101008083540402835291602001916108df565b820191906000526020600020905b8154815290600101906020018083116108c257829003601f168201915b5050505050908060040180546108f49061161b565b80601f01602080910402602001604051908101604052809291908181526020018280546109209061161b565b801561096d5780601f106109425761010080835404028352916020019161096d565b820191906000526020600020905b81548152906001019060200180831161095057829003601f168201915b5050505050908060050160009054906101000a900460ff16905086565b600360009054906101000a900473ffffffffffffffffffffffffffffffffffffffff1681565b60606000600260008473ffffffffffffffffffffffffffffffffffffffff1673ffffffffffffffffffffffffffffffffffffffff168152602001908152602001600020805480602002602001604051908101604052809291908181526020018280548015610a3d57602002820191906000526020600020905b815481526020019060010190808311610a29575b505050505090506000815167ffffffffffffffff811115610a6157610a60610f26565b5b604051908082528060200260200182016040528015610a9a57816020015b610a87610d6e565b815260200190600190039081610a7f5790505b50905060005b8251811015610d5d5760016000848381518110610ac057610abf6119a4565b5b602002602001015181526020019081526020016000206040518060c0016040529081600082015481526020016001820160009054906101000a900473ffffffffffffffffffffffffffffffffffffffff1673ffffffffffffffffffffffffffffffffffffffff1673ffffffffffffffffffffffffffffffffffffffff168152602001600282018054610b519061161b565b80601f0160208091040260200160405190810160405280929190818152602001828054610b7d9061161b565b8015610bca5780601f10610b9f57610100808354040283529160200191610bca565b820191906000526020600020905b815481529060010190602001808311610bad57829003601f168201915b50505050508152602001600382018054610be39061161b565b80601f0160208091040260200160405190810160405280929190818152602001828054610c0f9061161b565b8015610c5c5780601f10610c3157610100808354040283529160200191610c5c565b820191906000526020600020905b815481529060010190602001808311610c3f57829003601f168201915b50505050508152602001600482018054610c759061161b565b80601f0160208091040260200160405190810160405280929190818152602001828054610ca19061161b565b8015610cee5780601f10610cc357610100808354040283529160200191610cee565b820191906000526020600020905b815481529060010190602001808311610cd157829003601f168201915b505050505081526020016005820160009054906101000a900460ff166002811115610d1c57610d1b6111e2565b5b6002811115610d2e57610d2d6111e2565b5b81525050828281518110610d4557610d446119a4565b5b60200260200101819052508080600101915050610aa0565b508092505050919050565b60005481565b6040518060c0016040528060008152602001600073ffffffffffffffffffffffffffffffffffffffff16815260200160608152602001606081526020016060815260200160006002811115610dc657610dc56111e2565b5b81525090565b6000604051905090565b600080fd5b600080fd5b600073ffffffffffffffffffffffffffffffffffffffff82169050919050565b6000610e0b82610de0565b9050919050565b610e1b81610e00565b8114610e2657600080fd5b50565b600081359050610e3881610e12565b92915050565b6000819050919050565b610e5181610e3e565b8114610e5c57600080fd5b50565b600081359050610e6e81610e48565b92915050565b60008060408385031215610e8b57610e8a610dd6565b5b6000610e9985828601610e29565b9250506020610eaa85828601610e5f565b9150509250929050565b610ebd81610e3e565b82525050565b6000602082019050610ed86000830184610eb4565b92915050565b600060208284031215610ef457610ef3610dd6565b5b6000610f0284828501610e5f565b91505092915050565b600080fd5b600080fd5b6000601f19601f8301169050919050565b7f4e487b7100000000000000000000000000000000000000000000000000000000600052604160045260246000fd5b610f5e82610f15565b810181811067ffffffffffffffff82111715610f7d57610f7c610f26565b5b80604052505050565b6000610f90610dcc565b9050610f9c8282610f55565b919050565b600067ffffffffffffffff821115610fbc57610fbb610f26565b5b610fc582610f15565b9050602081019050919050565b82818337600083830152505050565b6000610ff4610fef84610fa1565b610f86565b9050828152602081018484840111156110105761100f610f10565b5b61101b848285610fd2565b509392505050565b600082601f83011261103857611037610f0b565b5b8135611048848260208601610fe1565b91505092915050565b60008060006060848603121561106a57611069610dd6565b5b600084013567ffffffffffffffff81111561108857611087610ddb565b5b61109486828701611023565b935050602084013567ffffffffffffffff8111156110b5576110b4610ddb565b5b6110c186828701611023565b925050604084013567ffffffffffffffff8111156110e2576110e1610ddb565b5b6110ee86828701611023565b9150509250925092565b6000806040838503121561110f5761110e610dd6565b5b600061111d85828601610e5f565b925050602083013567ffffffffffffffff81111561113e5761113d610ddb565b5b61114a85828601611023565b9150509250929050565b61115d81610e00565b82525050565b600081519050919050565b600082825260208201905092915050565b60005b8381101561119d578082015181840152602081019050611182565b60008484015250505050565b60006111b482611163565b6111be818561116e565b93506111ce81856020860161117f565b6111d781610f15565b840191505092915050565b7f4e487b7100000000000000000000000000000000000000000000000000000000600052602160045260246000fd5b60038110611222576112216111e2565b5b50565b600081905061123382611211565b919050565b600061124382611225565b9050919050565b61125381611238565b82525050565b600060c08201905061126e6000830189610eb4565b61127b6020830188611154565b818103604083015261128d81876111a9565b905081810360608301526112a181866111a9565b905081810360808301526112b581856111a9565b90506112c460a083018461124a565b979650505050505050565b60006020820190506112e46000830184611154565b92915050565b600060208284031215611300576112ff610dd6565b5b600061130e84828501610e29565b91505092915050565b600081519050919050565b600082825260208201905092915050565b6000819050602082019050919050565b61134c81610e3e565b82525050565b61135b81610e00565b82525050565b600082825260208201905092915050565b600061137d82611163565b6113878185611361565b935061139781856020860161117f565b6113a081610f15565b840191505092915050565b6113b481611238565b82525050565b600060c0830160008301516113d26000860182611343565b5060208301516113e56020860182611352565b50604083015184820360408601526113fd8282611372565b915050606083015184820360608601526114178282611372565b915050608083015184820360808601526114318282611372565b91505060a083015161144660a08601826113ab565b508091505092915050565b600061145d83836113ba565b905092915050565b6000602082019050919050565b600061147d82611317565b6114878185611322565b93508360208202850161149985611333565b8060005b858110156114d557848403895281516114b68582611451565b94506114c183611465565b925060208a0199505060018101905061149d565b50829750879550505050505092915050565b600060208201905081810360008301526115018184611472565b905092915050565b7f4e6f7420617574686f72697a6564000000000000000000000000000000000000600082015250565b600061153f600e8361116e565b915061154a82611509565b602082019050919050565b6000602082019050818103600083015261156e81611532565b9050919050565b7f4e487b7100000000000000000000000000000000000000000000000000000000600052601160045260246000fd5b60006115af82610e3e565b91507fffffffffffffffffffffffffffffffffffffffffffffffffffffffffffffffff82036115e1576115e0611575565b5b600182019050919050565b7f4e487b7100000000000000000000000000000000000000000000000000000000600052602260045260246000fd5b6000600282049050600182168061163357607f821691505b602082108103611646576116456115ec565b5b50919050565b60008190508160005260206000209050919050565b60006020601f8301049050919050565b600082821b905092915050565b6000600883026116ae7fffffffffffffffffffffffffffffffffffffffffffffffffffffffffffffffff82611671565b6116b88683611671565b95508019841693508086168417925050509392505050565b6000819050919050565b60006116f56116f06116eb84610e3e565b6116d0565b610e3e565b9050919050565b6000819050919050565b61170f836116da565b61172361171b826116fc565b84845461167e565b825550505050565b600090565b61173861172b565b611743818484611706565b505050565b5b818110156117675761175c600082611730565b600181019050611749565b5050565b601f8211156117ac5761177d8161164c565b61178684611661565b81016020851015611795578190505b6117a96117a185611661565b830182611748565b50505b505050565b600082821c905092915050565b60006117cf600019846008026117b1565b1980831691505092915050565b60006117e883836117be565b9150826002028217905092915050565b61180182611163565b67ffffffffffffffff81111561181a57611819610f26565b5b611824825461161b565b61182f82828561176b565b600060209050601f8311600181146118625760008415611850578287015190505b61185a85826117dc565b8655506118c2565b601f1984166118708661164c565b60005b8281101561189857848901518255600182019150602085019450602081019050611873565b868310156118b557848901516118b1601f8916826117be565b8355505b6001600288020188555050505b505050505050565b60006060820190506118df6000830186610eb4565b6118ec6020830185611154565b81810360408301526118fe81846111a9565b9050949350505050565b7f446f63756d656e74206e6f742076657269666965640000000000000000000000600082015250565b600061193e60158361116e565b915061194982611908565b602082019050919050565b6000602082019050818103600083015261196d81611931565b9050919050565b60006040820190506119896000830185610eb4565b818103602083015261199b81846111a9565b90509392505050565b7f4e487b7100000000000000000000000000000000000000000000000000000000600052603260045260246000fdfea26469706673582212208c002b90b94dad22a2b36e52f6eaa818940f156d89e9b567dbd645c2c60b37e864736f6c634300081c0033",
  "linkReferences": {},
  "deployedLinkReferences": {}
}